{
  "contractName": "MintAnimalToken",
  "abi": [
    {
      "inputs": [],
      "stateMutability": "nonpayable",
      "type": "constructor"
    },
    {
      "anonymous": false,
      "inputs": [
        {
          "indexed": true,
          "internalType": "address",
          "name": "owner",
          "type": "address"
        },
        {
          "indexed": true,
          "internalType": "address",
          "name": "approved",
          "type": "address"
        },
        {
          "indexed": true,
          "internalType": "uint256",
          "name": "tokenId",
          "type": "uint256"
        }
      ],
      "name": "Approval",
      "type": "event"
    },
    {
      "anonymous": false,
      "inputs": [
        {
          "indexed": true,
          "internalType": "address",
          "name": "owner",
          "type": "address"
        },
        {
          "indexed": true,
          "internalType": "address",
          "name": "operator",
          "type": "address"
        },
        {
          "indexed": false,
          "internalType": "bool",
          "name": "approved",
          "type": "bool"
        }
      ],
      "name": "ApprovalForAll",
      "type": "event"
    },
    {
      "anonymous": false,
      "inputs": [
        {
          "indexed": true,
          "internalType": "address",
          "name": "from",
          "type": "address"
        },
        {
          "indexed": true,
          "internalType": "address",
          "name": "to",
          "type": "address"
        },
        {
          "indexed": true,
          "internalType": "uint256",
          "name": "tokenId",
          "type": "uint256"
        }
      ],
      "name": "Transfer",
      "type": "event"
    },
    {
      "inputs": [
        {
          "internalType": "uint256",
          "name": "",
          "type": "uint256"
        }
      ],
      "name": "animalTypes",
      "outputs": [
        {
          "internalType": "uint256",
          "name": "",
          "type": "uint256"
        }
      ],
      "stateMutability": "view",
      "type": "function",
      "constant": true
    },
    {
      "inputs": [
        {
          "internalType": "address",
          "name": "to",
          "type": "address"
        },
        {
          "internalType": "uint256",
          "name": "tokenId",
          "type": "uint256"
        }
      ],
      "name": "approve",
      "outputs": [],
      "stateMutability": "nonpayable",
      "type": "function"
    },
    {
      "inputs": [
        {
          "internalType": "address",
          "name": "owner",
          "type": "address"
        }
      ],
      "name": "balanceOf",
      "outputs": [
        {
          "internalType": "uint256",
          "name": "",
          "type": "uint256"
        }
      ],
      "stateMutability": "view",
      "type": "function",
      "constant": true
    },
    {
      "inputs": [
        {
          "internalType": "uint256",
          "name": "tokenId",
          "type": "uint256"
        }
      ],
      "name": "getApproved",
      "outputs": [
        {
          "internalType": "address",
          "name": "",
          "type": "address"
        }
      ],
      "stateMutability": "view",
      "type": "function",
      "constant": true
    },
    {
      "inputs": [
        {
          "internalType": "address",
          "name": "owner",
          "type": "address"
        },
        {
          "internalType": "address",
          "name": "operator",
          "type": "address"
        }
      ],
      "name": "isApprovedForAll",
      "outputs": [
        {
          "internalType": "bool",
          "name": "",
          "type": "bool"
        }
      ],
      "stateMutability": "view",
      "type": "function",
      "constant": true
    },
    {
      "inputs": [],
      "name": "name",
      "outputs": [
        {
          "internalType": "string",
          "name": "",
          "type": "string"
        }
      ],
      "stateMutability": "view",
      "type": "function",
      "constant": true
    },
    {
      "inputs": [
        {
          "internalType": "uint256",
          "name": "tokenId",
          "type": "uint256"
        }
      ],
      "name": "ownerOf",
      "outputs": [
        {
          "internalType": "address",
          "name": "",
          "type": "address"
        }
      ],
      "stateMutability": "view",
      "type": "function",
      "constant": true
    },
    {
      "inputs": [
        {
          "internalType": "address",
          "name": "from",
          "type": "address"
        },
        {
          "internalType": "address",
          "name": "to",
          "type": "address"
        },
        {
          "internalType": "uint256",
          "name": "tokenId",
          "type": "uint256"
        }
      ],
      "name": "safeTransferFrom",
      "outputs": [],
      "stateMutability": "nonpayable",
      "type": "function"
    },
    {
      "inputs": [
        {
          "internalType": "address",
          "name": "from",
          "type": "address"
        },
        {
          "internalType": "address",
          "name": "to",
          "type": "address"
        },
        {
          "internalType": "uint256",
          "name": "tokenId",
          "type": "uint256"
        },
        {
          "internalType": "bytes",
          "name": "_data",
          "type": "bytes"
        }
      ],
      "name": "safeTransferFrom",
      "outputs": [],
      "stateMutability": "nonpayable",
      "type": "function"
    },
    {
      "inputs": [],
      "name": "saleAnimalToken",
      "outputs": [
        {
          "internalType": "contract SaleAnimalToken",
          "name": "",
          "type": "address"
        }
      ],
      "stateMutability": "view",
      "type": "function",
      "constant": true
    },
    {
      "inputs": [
        {
          "internalType": "address",
          "name": "operator",
          "type": "address"
        },
        {
          "internalType": "bool",
          "name": "approved",
          "type": "bool"
        }
      ],
      "name": "setApprovalForAll",
      "outputs": [],
      "stateMutability": "nonpayable",
      "type": "function"
    },
    {
      "inputs": [
        {
          "internalType": "bytes4",
          "name": "interfaceId",
          "type": "bytes4"
        }
      ],
      "name": "supportsInterface",
      "outputs": [
        {
          "internalType": "bool",
          "name": "",
          "type": "bool"
        }
      ],
      "stateMutability": "view",
      "type": "function",
      "constant": true
    },
    {
      "inputs": [],
      "name": "symbol",
      "outputs": [
        {
          "internalType": "string",
          "name": "",
          "type": "string"
        }
      ],
      "stateMutability": "view",
      "type": "function",
      "constant": true
    },
    {
      "inputs": [
        {
          "internalType": "uint256",
          "name": "index",
          "type": "uint256"
        }
      ],
      "name": "tokenByIndex",
      "outputs": [
        {
          "internalType": "uint256",
          "name": "",
          "type": "uint256"
        }
      ],
      "stateMutability": "view",
      "type": "function",
      "constant": true
    },
    {
      "inputs": [
        {
          "internalType": "address",
          "name": "owner",
          "type": "address"
        },
        {
          "internalType": "uint256",
          "name": "index",
          "type": "uint256"
        }
      ],
      "name": "tokenOfOwnerByIndex",
      "outputs": [
        {
          "internalType": "uint256",
          "name": "",
          "type": "uint256"
        }
      ],
      "stateMutability": "view",
      "type": "function",
      "constant": true
    },
    {
      "inputs": [
        {
          "internalType": "uint256",
          "name": "tokenId",
          "type": "uint256"
        }
      ],
      "name": "tokenURI",
      "outputs": [
        {
          "internalType": "string",
          "name": "",
          "type": "string"
        }
      ],
      "stateMutability": "view",
      "type": "function",
      "constant": true
    },
    {
      "inputs": [],
      "name": "totalSupply",
      "outputs": [
        {
          "internalType": "uint256",
          "name": "",
          "type": "uint256"
        }
      ],
      "stateMutability": "view",
      "type": "function",
      "constant": true
    },
    {
      "inputs": [
        {
          "internalType": "address",
          "name": "from",
          "type": "address"
        },
        {
          "internalType": "address",
          "name": "to",
          "type": "address"
        },
        {
          "internalType": "uint256",
          "name": "tokenId",
          "type": "uint256"
        }
      ],
      "name": "transferFrom",
      "outputs": [],
      "stateMutability": "nonpayable",
      "type": "function"
    },
    {
      "inputs": [],
      "name": "mintAnimalToken",
      "outputs": [],
      "stateMutability": "nonpayable",
      "type": "function"
    },
    {
      "inputs": [
        {
          "internalType": "address",
          "name": "_animalTokenOwner",
          "type": "address"
        }
      ],
      "name": "getAnimalTokens",
      "outputs": [
        {
          "components": [
            {
              "internalType": "uint256",
              "name": "animalTokenId",
              "type": "uint256"
            },
            {
              "internalType": "uint256",
              "name": "animalType",
              "type": "uint256"
            },
            {
              "internalType": "uint256",
              "name": "animalPrice",
              "type": "uint256"
            }
          ],
          "internalType": "struct MintAnimalToken.AnimalTokenData[]",
          "name": "",
          "type": "tuple[]"
        }
      ],
      "stateMutability": "view",
      "type": "function",
      "constant": true
    },
    {
      "inputs": [
        {
          "internalType": "address",
          "name": "_saleAnimalToken",
          "type": "address"
        }
      ],
      "name": "setSaleAnimalToken",
      "outputs": [],
      "stateMutability": "nonpayable",
      "type": "function"
    }
  ],
  "bytecode": "0x60806040523480156200001157600080fd5b506040518060400160405280600b81526020017f68363632416e696d616c730000000000000000000000000000000000000000008152506040518060400160405280600381526020017f4841530000000000000000000000000000000000000000000000000000000000815250816000908051906020019062000096929190620000b8565b508060019080519060200190620000af929190620000b8565b505050620001cd565b828054620000c69062000197565b90600052602060002090601f016020900481019282620000ea576000855562000136565b82601f106200010557805160ff191683800117855562000136565b8280016001018555821562000136579182015b828111156200013557825182559160200191906001019062000118565b5b50905062000145919062000149565b5090565b5b80821115620001645760008160009055506001016200014a565b5090565b7f4e487b7100000000000000000000000000000000000000000000000000000000600052602260045260246000fd5b60006002820490506001821680620001b057607f821691505b60208210811415620001c757620001c662000168565b5b50919050565b61351680620001dd6000396000f3fe608060405234801561001057600080fd5b50600436106101375760003560e01c80634f6ccce7116100b857806395d89b411161007c57806395d89b4114610372578063a22cb46514610390578063b1752755146103ac578063b88d4fde146103ca578063c87b56dd146103e6578063e985e9c51461041657610137565b80634f6ccce7146102a8578063504436ac146102d857806362b4c27f146103085780636352211e1461031257806370a082311461034257610137565b806318160ddd116100ff57806318160ddd146101f257806323b872dd146102105780632f745c591461022c57806342842e0e1461025c5780634e7fe41e1461027857610137565b806301ffc9a71461013c57806305b2ad4e1461016c57806306fdde0314610188578063081812fc146101a6578063095ea7b3146101d6575b600080fd5b61015660048036038101906101519190612056565b610446565b604051610163919061209e565b60405180910390f35b61018660048036038101906101819190612117565b6104c0565b005b610190610504565b60405161019d91906121dd565b60405180910390f35b6101c060048036038101906101bb9190612235565b610596565b6040516101cd9190612271565b60405180910390f35b6101f060048036038101906101eb919061228c565b61061b565b005b6101fa610733565b60405161020791906122db565b60405180910390f35b61022a600480360381019061022591906122f6565b610740565b005b6102466004803603810190610241919061228c565b6107a0565b60405161025391906122db565b60405180910390f35b610276600480360381019061027191906122f6565b610845565b005b610292600480360381019061028d9190612235565b610865565b60405161029f91906122db565b60405180910390f35b6102c260048036038101906102bd9190612235565b61087d565b6040516102cf91906122db565b60405180910390f35b6102f260048036038101906102ed9190612117565b6108ee565b6040516102ff9190612449565b60405180910390f35b610310610ac4565b005b61032c60048036038101906103279190612235565b610b4c565b6040516103399190612271565b60405180910390f35b61035c60048036038101906103579190612117565b610bfe565b60405161036991906122db565b60405180910390f35b61037a610cb6565b60405161038791906121dd565b60405180910390f35b6103aa60048036038101906103a59190612497565b610d48565b005b6103b4610d5e565b6040516103c19190612536565b60405180910390f35b6103e460048036038101906103df9190612686565b610d84565b005b61040060048036038101906103fb9190612235565b610de6565b60405161040d91906121dd565b60405180910390f35b610430600480360381019061042b9190612709565b610e8d565b60405161043d919061209e565b60405180910390f35b60007f780e9d63000000000000000000000000000000000000000000000000000000007bffffffffffffffffffffffffffffffffffffffffffffffffffffffff1916827bffffffffffffffffffffffffffffffffffffffffffffffffffffffff191614806104b957506104b882610f21565b5b9050919050565b80600a60006101000a81548173ffffffffffffffffffffffffffffffffffffffff021916908373ffffffffffffffffffffffffffffffffffffffff16021790555050565b60606000805461051390612778565b80601f016020809104026020016040519081016040528092919081815260200182805461053f90612778565b801561058c5780601f106105615761010080835404028352916020019161058c565b820191906000526020600020905b81548152906001019060200180831161056f57829003601f168201915b5050505050905090565b60006105a182611003565b6105e0576040517f08c379a00000000000000000000000000000000000000000000000000000000081526004016105d79061281c565b60405180910390fd5b6004600083815260200190815260200160002060009054906101000a900473ffffffffffffffffffffffffffffffffffffffff169050919050565b600061062682610b4c565b90508073ffffffffffffffffffffffffffffffffffffffff168373ffffffffffffffffffffffffffffffffffffffff161415610697576040517f08c379a000000000000000000000000000000000000000000000000000000000815260040161068e906128ae565b60405180910390fd5b8073ffffffffffffffffffffffffffffffffffffffff166106b661106f565b73ffffffffffffffffffffffffffffffffffffffff1614806106e557506106e4816106df61106f565b610e8d565b5b610724576040517f08c379a000000000000000000000000000000000000000000000000000000000815260040161071b90612940565b60405180910390fd5b61072e8383611077565b505050565b6000600880549050905090565b61075161074b61106f565b82611130565b610790576040517f08c379a0000000000000000000000000000000000000000000000000000000008152600401610787906129d2565b60405180910390fd5b61079b83838361120e565b505050565b60006107ab83610bfe565b82106107ec576040517f08c379a00000000000000000000000000000000000000000000000000000000081526004016107e390612a64565b60405180910390fd5b600660008473ffffffffffffffffffffffffffffffffffffffff1673ffffffffffffffffffffffffffffffffffffffff168152602001908152602001600020600083815260200190815260200160002054905092915050565b61086083838360405180602001604052806000815250610d84565b505050565b600b6020528060005260406000206000915090505481565b6000610887610733565b82106108c8576040517f08c379a00000000000000000000000000000000000000000000000000000000081526004016108bf90612af6565b60405180910390fd5b600882815481106108dc576108db612b16565b5b90600052602060002001549050919050565b606060006108fb83610bfe565b90506000811415610941576040517f08c379a000000000000000000000000000000000000000000000000000000000815260040161093890612b91565b60405180910390fd5b60008167ffffffffffffffff81111561095d5761095c61255b565b5b60405190808252806020026020018201604052801561099657816020015b610983611fc9565b81526020019060019003908161097b5790505b50905060005b82811015610ab95760006109b086836107a0565b90506000600b60008381526020019081526020016000205490506000600a60009054906101000a900473ffffffffffffffffffffffffffffffffffffffff1673ffffffffffffffffffffffffffffffffffffffff1663fdbb69df846040518263ffffffff1660e01b8152600401610a2791906122db565b602060405180830381865afa158015610a44573d6000803e3d6000fd5b505050506040513d601f19601f82011682018060405250810190610a689190612bc6565b9050604051806060016040528084815260200183815260200182815250858581518110610a9857610a97612b16565b5b60200260200101819052505050508080610ab190612c22565b91505061099c565b508092505050919050565b60006001610ad0610733565b610ada9190612c6b565b9050600060016005423385604051602001610af793929190612d2a565b6040516020818303038152906040528051906020012060001c610b1a9190612d96565b610b249190612c6b565b905080600b600084815260200190815260200160002081905550610b483383611475565b5050565b6000806002600084815260200190815260200160002060009054906101000a900473ffffffffffffffffffffffffffffffffffffffff169050600073ffffffffffffffffffffffffffffffffffffffff168173ffffffffffffffffffffffffffffffffffffffff161415610bf5576040517f08c379a0000000000000000000000000000000000000000000000000000000008152600401610bec90612e39565b60405180910390fd5b80915050919050565b60008073ffffffffffffffffffffffffffffffffffffffff168273ffffffffffffffffffffffffffffffffffffffff161415610c6f576040517f08c379a0000000000000000000000000000000000000000000000000000000008152600401610c6690612ecb565b60405180910390fd5b600360008373ffffffffffffffffffffffffffffffffffffffff1673ffffffffffffffffffffffffffffffffffffffff168152602001908152602001600020549050919050565b606060018054610cc590612778565b80601f0160208091040260200160405190810160405280929190818152602001828054610cf190612778565b8015610d3e5780601f10610d1357610100808354040283529160200191610d3e565b820191906000526020600020905b815481529060010190602001808311610d2157829003601f168201915b5050505050905090565b610d5a610d5361106f565b838361164f565b5050565b600a60009054906101000a900473ffffffffffffffffffffffffffffffffffffffff1681565b610d95610d8f61106f565b83611130565b610dd4576040517f08c379a0000000000000000000000000000000000000000000000000000000008152600401610dcb906129d2565b60405180910390fd5b610de0848484846117bc565b50505050565b6060610df182611003565b610e30576040517f08c379a0000000000000000000000000000000000000000000000000000000008152600401610e2790612f5d565b60405180910390fd5b6000610e3a611818565b90506000815111610e5a5760405180602001604052806000815250610e85565b80610e648461182f565b604051602001610e75929190612fb9565b6040516020818303038152906040525b915050919050565b6000600560008473ffffffffffffffffffffffffffffffffffffffff1673ffffffffffffffffffffffffffffffffffffffff16815260200190815260200160002060008373ffffffffffffffffffffffffffffffffffffffff1673ffffffffffffffffffffffffffffffffffffffff16815260200190815260200160002060009054906101000a900460ff16905092915050565b60007f80ac58cd000000000000000000000000000000000000000000000000000000007bffffffffffffffffffffffffffffffffffffffffffffffffffffffff1916827bffffffffffffffffffffffffffffffffffffffffffffffffffffffff19161480610fec57507f5b5e139f000000000000000000000000000000000000000000000000000000007bffffffffffffffffffffffffffffffffffffffffffffffffffffffff1916827bffffffffffffffffffffffffffffffffffffffffffffffffffffffff1916145b80610ffc5750610ffb82611990565b5b9050919050565b60008073ffffffffffffffffffffffffffffffffffffffff166002600084815260200190815260200160002060009054906101000a900473ffffffffffffffffffffffffffffffffffffffff1673ffffffffffffffffffffffffffffffffffffffff1614159050919050565b600033905090565b816004600083815260200190815260200160002060006101000a81548173ffffffffffffffffffffffffffffffffffffffff021916908373ffffffffffffffffffffffffffffffffffffffff160217905550808273ffffffffffffffffffffffffffffffffffffffff166110ea83610b4c565b73ffffffffffffffffffffffffffffffffffffffff167f8c5be1e5ebec7d5bd14f71427d1e84f3dd0314c0f7b2291e5b200ac8c7c3b92560405160405180910390a45050565b600061113b82611003565b61117a576040517f08c379a00000000000000000000000000000000000000000000000000000000081526004016111719061304f565b60405180910390fd5b600061118583610b4c565b90508073ffffffffffffffffffffffffffffffffffffffff168473ffffffffffffffffffffffffffffffffffffffff1614806111f457508373ffffffffffffffffffffffffffffffffffffffff166111dc84610596565b73ffffffffffffffffffffffffffffffffffffffff16145b8061120557506112048185610e8d565b5b91505092915050565b8273ffffffffffffffffffffffffffffffffffffffff1661122e82610b4c565b73ffffffffffffffffffffffffffffffffffffffff1614611284576040517f08c379a000000000000000000000000000000000000000000000000000000000815260040161127b906130e1565b60405180910390fd5b600073ffffffffffffffffffffffffffffffffffffffff168273ffffffffffffffffffffffffffffffffffffffff1614156112f4576040517f08c379a00000000000000000000000000000000000000000000000000000000081526004016112eb90613173565b60405180910390fd5b6112ff8383836119fa565b61130a600082611077565b6001600360008573ffffffffffffffffffffffffffffffffffffffff1673ffffffffffffffffffffffffffffffffffffffff168152602001908152602001600020600082825461135a9190613193565b925050819055506001600360008473ffffffffffffffffffffffffffffffffffffffff1673ffffffffffffffffffffffffffffffffffffffff16815260200190815260200160002060008282546113b19190612c6b565b92505081905550816002600083815260200190815260200160002060006101000a81548173ffffffffffffffffffffffffffffffffffffffff021916908373ffffffffffffffffffffffffffffffffffffffff160217905550808273ffffffffffffffffffffffffffffffffffffffff168473ffffffffffffffffffffffffffffffffffffffff167fddf252ad1be2c89b69c2b068fc378daa952ba7f163c4a11628f55a4df523b3ef60405160405180910390a4611470838383611b0e565b505050565b600073ffffffffffffffffffffffffffffffffffffffff168273ffffffffffffffffffffffffffffffffffffffff1614156114e5576040517f08c379a00000000000000000000000000000000000000000000000000000000081526004016114dc90613213565b60405180910390fd5b6114ee81611003565b1561152e576040517f08c379a00000000000000000000000000000000000000000000000000000000081526004016115259061327f565b60405180910390fd5b61153a600083836119fa565b6001600360008473ffffffffffffffffffffffffffffffffffffffff1673ffffffffffffffffffffffffffffffffffffffff168152602001908152602001600020600082825461158a9190612c6b565b92505081905550816002600083815260200190815260200160002060006101000a81548173ffffffffffffffffffffffffffffffffffffffff021916908373ffffffffffffffffffffffffffffffffffffffff160217905550808273ffffffffffffffffffffffffffffffffffffffff16600073ffffffffffffffffffffffffffffffffffffffff167fddf252ad1be2c89b69c2b068fc378daa952ba7f163c4a11628f55a4df523b3ef60405160405180910390a461164b60008383611b0e565b5050565b8173ffffffffffffffffffffffffffffffffffffffff168373ffffffffffffffffffffffffffffffffffffffff1614156116be576040517f08c379a00000000000000000000000000000000000000000000000000000000081526004016116b5906132eb565b60405180910390fd5b80600560008573ffffffffffffffffffffffffffffffffffffffff1673ffffffffffffffffffffffffffffffffffffffff16815260200190815260200160002060008473ffffffffffffffffffffffffffffffffffffffff1673ffffffffffffffffffffffffffffffffffffffff16815260200190815260200160002060006101000a81548160ff0219169083151502179055508173ffffffffffffffffffffffffffffffffffffffff168373ffffffffffffffffffffffffffffffffffffffff167f17307eab39ab6107e8899845ad3d59bd9653f200f220920489ca2b5937696c31836040516117af919061209e565b60405180910390a3505050565b6117c784848461120e565b6117d384848484611b13565b611812576040517f08c379a00000000000000000000000000000000000000000000000000000000081526004016118099061337d565b60405180910390fd5b50505050565b606060405180602001604052806000815250905090565b60606000821415611877576040518060400160405280600181526020017f3000000000000000000000000000000000000000000000000000000000000000815250905061198b565b600082905060005b600082146118a957808061189290612c22565b915050600a826118a2919061339d565b915061187f565b60008167ffffffffffffffff8111156118c5576118c461255b565b5b6040519080825280601f01601f1916602001820160405280156118f75781602001600182028036833780820191505090505b5090505b60008514611984576001826119109190613193565b9150600a8561191f9190612d96565b603061192b9190612c6b565b60f81b81838151811061194157611940612b16565b5b60200101907effffffffffffffffffffffffffffffffffffffffffffffffffffffffffffff1916908160001a905350600a8561197d919061339d565b94506118fb565b8093505050505b919050565b60007f01ffc9a7000000000000000000000000000000000000000000000000000000007bffffffffffffffffffffffffffffffffffffffffffffffffffffffff1916827bffffffffffffffffffffffffffffffffffffffffffffffffffffffff1916149050919050565b611a05838383611c9b565b600073ffffffffffffffffffffffffffffffffffffffff168373ffffffffffffffffffffffffffffffffffffffff161415611a4857611a4381611ca0565b611a87565b8173ffffffffffffffffffffffffffffffffffffffff168373ffffffffffffffffffffffffffffffffffffffff1614611a8657611a858382611ce9565b5b5b600073ffffffffffffffffffffffffffffffffffffffff168273ffffffffffffffffffffffffffffffffffffffff161415611aca57611ac581611e56565b611b09565b8273ffffffffffffffffffffffffffffffffffffffff168273ffffffffffffffffffffffffffffffffffffffff1614611b0857611b078282611f27565b5b5b505050565b505050565b6000611b348473ffffffffffffffffffffffffffffffffffffffff16611fa6565b15611c8e578373ffffffffffffffffffffffffffffffffffffffff1663150b7a02611b5d61106f565b8786866040518563ffffffff1660e01b8152600401611b7f9493929190613423565b6020604051808303816000875af1925050508015611bbb57506040513d601f19601f82011682018060405250810190611bb89190613484565b60015b611c3e573d8060008114611beb576040519150601f19603f3d011682016040523d82523d6000602084013e611bf0565b606091505b50600081511415611c36576040517f08c379a0000000000000000000000000000000000000000000000000000000008152600401611c2d9061337d565b60405180910390fd5b805181602001fd5b63150b7a0260e01b7bffffffffffffffffffffffffffffffffffffffffffffffffffffffff1916817bffffffffffffffffffffffffffffffffffffffffffffffffffffffff191614915050611c93565b600190505b949350505050565b505050565b6008805490506009600083815260200190815260200160002081905550600881908060018154018082558091505060019003906000526020600020016000909190919091505550565b60006001611cf684610bfe565b611d009190613193565b9050600060076000848152602001908152602001600020549050818114611de5576000600660008673ffffffffffffffffffffffffffffffffffffffff1673ffffffffffffffffffffffffffffffffffffffff168152602001908152602001600020600084815260200190815260200160002054905080600660008773ffffffffffffffffffffffffffffffffffffffff1673ffffffffffffffffffffffffffffffffffffffff168152602001908152602001600020600084815260200190815260200160002081905550816007600083815260200190815260200160002081905550505b6007600084815260200190815260200160002060009055600660008573ffffffffffffffffffffffffffffffffffffffff1673ffffffffffffffffffffffffffffffffffffffff16815260200190815260200160002060008381526020019081526020016000206000905550505050565b60006001600880549050611e6a9190613193565b9050600060096000848152602001908152602001600020549050600060088381548110611e9a57611e99612b16565b5b906000526020600020015490508060088381548110611ebc57611ebb612b16565b5b906000526020600020018190555081600960008381526020019081526020016000208190555060096000858152602001908152602001600020600090556008805480611f0b57611f0a6134b1565b5b6001900381819060005260206000200160009055905550505050565b6000611f3283610bfe565b905081600660008573ffffffffffffffffffffffffffffffffffffffff1673ffffffffffffffffffffffffffffffffffffffff168152602001908152602001600020600083815260200190815260200160002081905550806007600084815260200190815260200160002081905550505050565b6000808273ffffffffffffffffffffffffffffffffffffffff163b119050919050565b60405180606001604052806000815260200160008152602001600081525090565b6000604051905090565b600080fd5b600080fd5b60007fffffffff0000000000000000000000000000000000000000000000000000000082169050919050565b61203381611ffe565b811461203e57600080fd5b50565b6000813590506120508161202a565b92915050565b60006020828403121561206c5761206b611ff4565b5b600061207a84828501612041565b91505092915050565b60008115159050919050565b61209881612083565b82525050565b60006020820190506120b3600083018461208f565b92915050565b600073ffffffffffffffffffffffffffffffffffffffff82169050919050565b60006120e4826120b9565b9050919050565b6120f4816120d9565b81146120ff57600080fd5b50565b600081359050612111816120eb565b92915050565b60006020828403121561212d5761212c611ff4565b5b600061213b84828501612102565b91505092915050565b600081519050919050565b600082825260208201905092915050565b60005b8381101561217e578082015181840152602081019050612163565b8381111561218d576000848401525b50505050565b6000601f19601f8301169050919050565b60006121af82612144565b6121b9818561214f565b93506121c9818560208601612160565b6121d281612193565b840191505092915050565b600060208201905081810360008301526121f781846121a4565b905092915050565b6000819050919050565b612212816121ff565b811461221d57600080fd5b50565b60008135905061222f81612209565b92915050565b60006020828403121561224b5761224a611ff4565b5b600061225984828501612220565b91505092915050565b61226b816120d9565b82525050565b60006020820190506122866000830184612262565b92915050565b600080604083850312156122a3576122a2611ff4565b5b60006122b185828601612102565b92505060206122c285828601612220565b9150509250929050565b6122d5816121ff565b82525050565b60006020820190506122f060008301846122cc565b92915050565b60008060006060848603121561230f5761230e611ff4565b5b600061231d86828701612102565b935050602061232e86828701612102565b925050604061233f86828701612220565b9150509250925092565b600081519050919050565b600082825260208201905092915050565b6000819050602082019050919050565b61237e816121ff565b82525050565b60608201600082015161239a6000850182612375565b5060208201516123ad6020850182612375565b5060408201516123c06040850182612375565b50505050565b60006123d28383612384565b60608301905092915050565b6000602082019050919050565b60006123f682612349565b6124008185612354565b935061240b83612365565b8060005b8381101561243c57815161242388826123c6565b975061242e836123de565b92505060018101905061240f565b5085935050505092915050565b6000602082019050818103600083015261246381846123eb565b905092915050565b61247481612083565b811461247f57600080fd5b50565b6000813590506124918161246b565b92915050565b600080604083850312156124ae576124ad611ff4565b5b60006124bc85828601612102565b92505060206124cd85828601612482565b9150509250929050565b6000819050919050565b60006124fc6124f76124f2846120b9565b6124d7565b6120b9565b9050919050565b600061250e826124e1565b9050919050565b600061252082612503565b9050919050565b61253081612515565b82525050565b600060208201905061254b6000830184612527565b92915050565b600080fd5b600080fd5b7f4e487b7100000000000000000000000000000000000000000000000000000000600052604160045260246000fd5b61259382612193565b810181811067ffffffffffffffff821117156125b2576125b161255b565b5b80604052505050565b60006125c5611fea565b90506125d1828261258a565b919050565b600067ffffffffffffffff8211156125f1576125f061255b565b5b6125fa82612193565b9050602081019050919050565b82818337600083830152505050565b6000612629612624846125d6565b6125bb565b90508281526020810184848401111561264557612644612556565b5b612650848285612607565b509392505050565b600082601f83011261266d5761266c612551565b5b813561267d848260208601612616565b91505092915050565b600080600080608085870312156126a05761269f611ff4565b5b60006126ae87828801612102565b94505060206126bf87828801612102565b93505060406126d087828801612220565b925050606085013567ffffffffffffffff8111156126f1576126f0611ff9565b5b6126fd87828801612658565b91505092959194509250565b600080604083850312156127205761271f611ff4565b5b600061272e85828601612102565b925050602061273f85828601612102565b9150509250929050565b7f4e487b7100000000000000000000000000000000000000000000000000000000600052602260045260246000fd5b6000600282049050600182168061279057607f821691505b602082108114156127a4576127a3612749565b5b50919050565b7f4552433732313a20617070726f76656420717565727920666f72206e6f6e657860008201527f697374656e7420746f6b656e0000000000000000000000000000000000000000602082015250565b6000612806602c8361214f565b9150612811826127aa565b604082019050919050565b60006020820190508181036000830152612835816127f9565b9050919050565b7f4552433732313a20617070726f76616c20746f2063757272656e74206f776e6560008201527f7200000000000000000000000000000000000000000000000000000000000000602082015250565b600061289860218361214f565b91506128a38261283c565b604082019050919050565b600060208201905081810360008301526128c78161288b565b9050919050565b7f4552433732313a20617070726f76652063616c6c6572206973206e6f74206f7760008201527f6e6572206e6f7220617070726f76656420666f7220616c6c0000000000000000602082015250565b600061292a60388361214f565b9150612935826128ce565b604082019050919050565b600060208201905081810360008301526129598161291d565b9050919050565b7f4552433732313a207472616e736665722063616c6c6572206973206e6f74206f60008201527f776e6572206e6f7220617070726f766564000000000000000000000000000000602082015250565b60006129bc60318361214f565b91506129c782612960565b604082019050919050565b600060208201905081810360008301526129eb816129af565b9050919050565b7f455243373231456e756d657261626c653a206f776e657220696e646578206f7560008201527f74206f6620626f756e6473000000000000000000000000000000000000000000602082015250565b6000612a4e602b8361214f565b9150612a59826129f2565b604082019050919050565b60006020820190508181036000830152612a7d81612a41565b9050919050565b7f455243373231456e756d657261626c653a20676c6f62616c20696e646578206f60008201527f7574206f6620626f756e64730000000000000000000000000000000000000000602082015250565b6000612ae0602c8361214f565b9150612aeb82612a84565b604082019050919050565b60006020820190508181036000830152612b0f81612ad3565b9050919050565b7f4e487b7100000000000000000000000000000000000000000000000000000000600052603260045260246000fd5b7f4f776e657220646964206e6f74206861766520746f6b656e2e00000000000000600082015250565b6000612b7b60198361214f565b9150612b8682612b45565b602082019050919050565b60006020820190508181036000830152612baa81612b6e565b9050919050565b600081519050612bc081612209565b92915050565b600060208284031215612bdc57612bdb611ff4565b5b6000612bea84828501612bb1565b91505092915050565b7f4e487b7100000000000000000000000000000000000000000000000000000000600052601160045260246000fd5b6000612c2d826121ff565b91507fffffffffffffffffffffffffffffffffffffffffffffffffffffffffffffffff821415612c6057612c5f612bf3565b5b600182019050919050565b6000612c76826121ff565b9150612c81836121ff565b9250827fffffffffffffffffffffffffffffffffffffffffffffffffffffffffffffffff03821115612cb657612cb5612bf3565b5b828201905092915050565b6000819050919050565b612cdc612cd7826121ff565b612cc1565b82525050565b60008160601b9050919050565b6000612cfa82612ce2565b9050919050565b6000612d0c82612cef565b9050919050565b612d24612d1f826120d9565b612d01565b82525050565b6000612d368286612ccb565b602082019150612d468285612d13565b601482019150612d568284612ccb565b602082019150819050949350505050565b7f4e487b7100000000000000000000000000000000000000000000000000000000600052601260045260246000fd5b6000612da1826121ff565b9150612dac836121ff565b925082612dbc57612dbb612d67565b5b828206905092915050565b7f4552433732313a206f776e657220717565727920666f72206e6f6e657869737460008201527f656e7420746f6b656e0000000000000000000000000000000000000000000000602082015250565b6000612e2360298361214f565b9150612e2e82612dc7565b604082019050919050565b60006020820190508181036000830152612e5281612e16565b9050919050565b7f4552433732313a2062616c616e636520717565727920666f7220746865207a6560008201527f726f206164647265737300000000000000000000000000000000000000000000602082015250565b6000612eb5602a8361214f565b9150612ec082612e59565b604082019050919050565b60006020820190508181036000830152612ee481612ea8565b9050919050565b7f4552433732314d657461646174613a2055524920717565727920666f72206e6f60008201527f6e6578697374656e7420746f6b656e0000000000000000000000000000000000602082015250565b6000612f47602f8361214f565b9150612f5282612eeb565b604082019050919050565b60006020820190508181036000830152612f7681612f3a565b9050919050565b600081905092915050565b6000612f9382612144565b612f9d8185612f7d565b9350612fad818560208601612160565b80840191505092915050565b6000612fc58285612f88565b9150612fd18284612f88565b91508190509392505050565b7f4552433732313a206f70657261746f7220717565727920666f72206e6f6e657860008201527f697374656e7420746f6b656e0000000000000000000000000000000000000000602082015250565b6000613039602c8361214f565b915061304482612fdd565b604082019050919050565b600060208201905081810360008301526130688161302c565b9050919050565b7f4552433732313a207472616e736665722066726f6d20696e636f72726563742060008201527f6f776e6572000000000000000000000000000000000000000000000000000000602082015250565b60006130cb60258361214f565b91506130d68261306f565b604082019050919050565b600060208201905081810360008301526130fa816130be565b9050919050565b7f4552433732313a207472616e7366657220746f20746865207a65726f2061646460008201527f7265737300000000000000000000000000000000000000000000000000000000602082015250565b600061315d60248361214f565b915061316882613101565b604082019050919050565b6000602082019050818103600083015261318c81613150565b9050919050565b600061319e826121ff565b91506131a9836121ff565b9250828210156131bc576131bb612bf3565b5b828203905092915050565b7f4552433732313a206d696e7420746f20746865207a65726f2061646472657373600082015250565b60006131fd60208361214f565b9150613208826131c7565b602082019050919050565b6000602082019050818103600083015261322c816131f0565b9050919050565b7f4552433732313a20746f6b656e20616c7265616479206d696e74656400000000600082015250565b6000613269601c8361214f565b915061327482613233565b602082019050919050565b600060208201905081810360008301526132988161325c565b9050919050565b7f4552433732313a20617070726f766520746f2063616c6c657200000000000000600082015250565b60006132d560198361214f565b91506132e08261329f565b602082019050919050565b60006020820190508181036000830152613304816132c8565b9050919050565b7f4552433732313a207472616e7366657220746f206e6f6e20455243373231526560008201527f63656976657220696d706c656d656e7465720000000000000000000000000000602082015250565b600061336760328361214f565b91506133728261330b565b604082019050919050565b600060208201905081810360008301526133968161335a565b9050919050565b60006133a8826121ff565b91506133b3836121ff565b9250826133c3576133c2612d67565b5b828204905092915050565b600081519050919050565b600082825260208201905092915050565b60006133f5826133ce565b6133ff81856133d9565b935061340f818560208601612160565b61341881612193565b840191505092915050565b60006080820190506134386000830187612262565b6134456020830186612262565b61345260408301856122cc565b818103606083015261346481846133ea565b905095945050505050565b60008151905061347e8161202a565b92915050565b60006020828403121561349a57613499611ff4565b5b60006134a88482850161346f565b91505092915050565b7f4e487b7100000000000000000000000000000000000000000000000000000000600052603160045260246000fdfea2646970667358221220e5d13f742c6a95b773647a770913fcc6ef1e6206a4a0ebe4c22b0c48fbde247864736f6c634300080c0033",
  "immutableReferences": {},
  "source": "// SPDX-License-Identifier: MIT\r\n\r\npragma solidity ^0.8.0;\r\n\r\nimport \"@openzeppelin/contracts/token/ERC721/extensions/ERC721Enumerable.sol\";\r\n\r\n// SaleAnimalToken.sol  MintAnimalToken    \r\n//  SaleAnimalToken  import   \r\nimport \"./SaleAnimalToken.sol\";\r\n\r\ncontract MintAnimalToken is ERC721Enumerable {\r\n    constructor() ERC721(\"h662Animals\", \"HAS\"){}\r\n\r\n    SaleAnimalToken public saleAnimalToken;\r\n\r\n    //   (CODE!:      ->    )\r\n    struct AnimalTokenData {\r\n        uint256 animalTokenId;\r\n        uint256 animalType;\r\n        uint256 animalPrice;\r\n    }\r\n    // \r\n    mapping(uint256=>uint256) public animalTypes;\r\n\r\n    function mintAnimalToken() public {\r\n        uint256 animalTokenId = totalSupply() + 1;\r\n        uint256 animalType = uint(keccak256(abi.encodePacked(block.timestamp, msg.sender, animalTokenId)))  % 5 + 1;\r\n\r\n        animalTypes[animalTokenId] = animalType;\r\n\r\n        _mint(msg.sender, animalTokenId);\r\n    }\r\n\r\n    // CODE! \r\n     function getAnimalTokens(address _animalTokenOwner) view public returns (AnimalTokenData[] memory) {\r\n        uint256 balanceLength = balanceOf(_animalTokenOwner);\r\n\r\n        require(balanceLength != 0, \"Owner did not have token.\");\r\n\r\n        AnimalTokenData[] memory animalTokenData = new AnimalTokenData[](balanceLength);\r\n\r\n        for(uint256 i = 0; i < balanceLength; i++) {\r\n            uint256 animalTokenId = tokenOfOwnerByIndex(_animalTokenOwner, i);\r\n            uint256 animalType = animalTypes[animalTokenId];\r\n            uint256 animalPrice = saleAnimalToken.getAnimalTokenPrice(animalTokenId);\r\n\r\n            animalTokenData[i] = AnimalTokenData(animalTokenId, animalType, animalPrice);\r\n        }\r\n\r\n        return animalTokenData;\r\n    }\r\n\r\n    // CODE!\r\n    function setSaleAnimalToken(address _saleAnimalToken) public {\r\n        saleAnimalToken = SaleAnimalToken(_saleAnimalToken);\r\n    }\r\n}\r\n\r\n\r\n//remixd -s . --remix-ide https://remix.ethereum.org\r\n\r\n/* \r\n    balanceOf(address) :   NFT \r\n    tokenOfOwnerByIndex(address, index) :  NFT id\r\n    animalType(index):  NFT\r\n */ \r\n\r\n",
  "sourcePath": "C:\\solidity_github\\test\\NFT\\contracts\\MintAnimalToken.sol",
  "compiler": {
    "name": "solc",
    "version": "0.8.12+commit.f00d7308.Emscripten.clang"
  },
  "schemaVersion": "3.4.4",
  "updatedAt": "2022-03-04T09:26:54.718Z",
  "networkType": "ethereum",
  "devdoc": {
    "kind": "dev",
    "methods": {
      "approve(address,uint256)": {
        "details": "See {IERC721-approve}."
      },
      "balanceOf(address)": {
        "details": "See {IERC721-balanceOf}."
      },
      "getApproved(uint256)": {
        "details": "See {IERC721-getApproved}."
      },
      "isApprovedForAll(address,address)": {
        "details": "See {IERC721-isApprovedForAll}."
      },
      "name()": {
        "details": "See {IERC721Metadata-name}."
      },
      "ownerOf(uint256)": {
        "details": "See {IERC721-ownerOf}."
      },
      "safeTransferFrom(address,address,uint256)": {
        "details": "See {IERC721-safeTransferFrom}."
      },
      "safeTransferFrom(address,address,uint256,bytes)": {
        "details": "See {IERC721-safeTransferFrom}."
      },
      "setApprovalForAll(address,bool)": {
        "details": "See {IERC721-setApprovalForAll}."
      },
      "supportsInterface(bytes4)": {
        "details": "See {IERC165-supportsInterface}."
      },
      "symbol()": {
        "details": "See {IERC721Metadata-symbol}."
      },
      "tokenByIndex(uint256)": {
        "details": "See {IERC721Enumerable-tokenByIndex}."
      },
      "tokenOfOwnerByIndex(address,uint256)": {
        "details": "See {IERC721Enumerable-tokenOfOwnerByIndex}."
      },
      "tokenURI(uint256)": {
        "details": "See {IERC721Metadata-tokenURI}."
      },
      "totalSupply()": {
        "details": "See {IERC721Enumerable-totalSupply}."
      },
      "transferFrom(address,address,uint256)": {
        "details": "See {IERC721-transferFrom}."
      }
    },
    "version": 1
  },
  "userdoc": {
    "kind": "user",
    "methods": {},
    "version": 1
  }
}